:0C023700010804010A00010900010B008D
:040228007FE87E03EA
:0B022C00EF1FAC0670011E4C70F622A4
:10016C0020902F120228209026E50AC39401400B00
:10017C00050AE50AD3940640058000750A02E50AD3
:10018C0064066003E4F509E509B40103750A02305D
:10019C0090FD209112120228209109E508D39401B8
:1001AC00400215083091FD2092121202282092096B
:1001BC00E508C39406500205083092FD20931612F0
:1001CC00022820930DE50AB40105E4F50A800375B5
:0601DC000A013093FD2230
:10000300E4FEE50A7005F5A00200C3E50AB40103A6
:100013000200C0E50AB40213AF0B7401A8070880FD
:1000230002C333D8FCF4F5A00200C3E50AB4030FFE
:10003300AF0B7401A807088002C333D8FC806EE5B8
:100043000A64047035E50BC39404400674FC250B65
:10005300F50BAF0B7401A807088002C333D8FCF477
:10006300FFAE0B7480A806088002C313D8FCF454B7
:10007300F0FEEF540F4EF5A08046E50A640570329A
:10008300E50BC39404400974FC250BF50B75A0FF25
:10009300AF0B7401A807088002C333D8FCF452A045
:1000A300AF0B7480A807088002C313D8FCF452A0D6
:1000B300800EE50AB40609750901E4F50B75A0FF86
:1000C300E509B40117E50B7013E50AD39401400C5D
:0C00D300050AE50AD394054003750A02F3
:0100DF0022FE
:1001E200E4F5A07F507EC312022C12016C120003B0
:1001F200050BAF087E007C277D1012021612022C1E
:10020200E50BC3940840E3E4F50BE50AB403DB75A0
:04021200A0FF80D6F3
:030000000200E01B
:0C00E000787FE4F6D8FD75810B02012743
:10021600EF8DF0A4A8F0CF8CF0A428CE8DF0A42EFC
:02022600FE22B6
:1000EC000201E2E493A3F8E493A34003F68001F247
:1000FC0008DFF48029E493A3F85407240CC8C33315
:10010C00C4540F4420C8834004F456800146F6DFE3
:10011C00E4800B0102040810204080900237E47E3A
:10012C00019360BCA3FF543F30E509541FFEE493D8
:10013C00A360010ECF54C025E060A840B8E493A39F
:10014C00FAE493A3F8E493A3C8C582C8CAC583CACA
:10015C00F0A3C8C582C8CAC583CADFE9DEE780BE82
:0102430000BA
:00000001FF
