:07014D00F4F5B07F107E27DE
:0B015400EF1FAC0670011E4C70F6227D
:10000300E4FDFBFAF580F5A0F5B07F507EC3120145
:10001300547580FF75A0FF75B0FFE4FD7401A8055A
:10002300088002C333D8FCF4F5801201500DBD08DB
:10003300EB7580FFE4FD7401A805088002C333D883
:10004300FCF4F5A01201500DBD08EB75A0FFE4FD13
:100053007401A805088002C333D8FC12014D0DBDFD
:1000630008EE75B0FFE4FDEDC3940850117401A8C8
:1000730005088002C333D8FCF45280120150EDC34B
:100083009408401EED94105019ED24F8FF7401A854
:1000930007088002C333D8FCFF4280EFF452A0125A
:1000A3000150EDC39410401EED94185019ED24F047
:1000B300FF7401A807088002C333D8FCFF42A0EFF6
:1000C300F452B0120150EDC394184014ED24E8FF2C
:1000D3007401A807088002C333D8FC42B012015050
:1000E3000DED64207081E4FDEDC39408501C740190
:1000F300A805088002C333D8FCF4F5807480A805F2
:10010300088002C313D8FC12014DEDC3940840309C
:100113007580FF75B0FFED24F8FF7401A807088010
:1001230002C333D8FCF4FA7480A807088002C3130F
:10013300D8FCF4FB54F0FFEA540F4FF5A012015022
:0A0143000DBD0CA475A0FF02001D05
:0300000002015F9B
:0C015F00787FE4F6D8FD758107020003EC
:00000001FF
